{
  "contractName": "Classifieds",
  "abi": [
    {
      "inputs": [],
      "payable": false,
      "stateMutability": "nonpayable",
      "type": "constructor"
    },
    {
      "constant": false,
      "inputs": [
        {
          "name": "_name",
          "type": "string"
        },
        {
          "name": "_description",
          "type": "string"
        },
        {
          "name": "_price",
          "type": "uint256"
        }
      ],
      "name": "sellArticle",
      "outputs": [],
      "payable": false,
      "stateMutability": "nonpayable",
      "type": "function"
    },
    {
      "constant": true,
      "inputs": [],
      "name": "getArticle",
      "outputs": [
        {
          "name": "_seller",
          "type": "address"
        },
        {
          "name": "_name",
          "type": "string"
        },
        {
          "name": "_description",
          "type": "string"
        },
        {
          "name": "_price",
          "type": "uint256"
        }
      ],
      "payable": false,
      "stateMutability": "view",
      "type": "function"
    },
    {
      "constant": false,
      "inputs": [],
      "name": "buyArticle",
      "outputs": [],
      "payable": true,
      "stateMutability": "payable",
      "type": "function"
    }
  ],
  "bytecode": "0x608060405234801561001057600080fd5b506100c46040805190810160405280600f81526020017f44656661756c742041727469636c650000000000000000000000000000000000815250606060405190810160405280602181526020017f5468697320697320616e2061727469636c65207365742062792064656661756c81526020017f740000000000000000000000000000000000000000000000000000000000000081525067016345785d8a00006100c9640100000000026401000000009004565b6101e8565b336000806101000a81548173ffffffffffffffffffffffffffffffffffffffff021916908373ffffffffffffffffffffffffffffffffffffffff160217905550826002908051906020019061011f929190610143565b508160039080519060200190610136929190610143565b5080600481905550505050565b828054600181600116156101000203166002900490600052602060002090601f016020900481019282601f1061018457805160ff19168380011785556101b2565b828001600101855582156101b2579182015b828111156101b1578251825591602001919060010190610196565b5b5090506101bf91906101c3565b5090565b6101e591905b808211156101e15760008160009055506001016101c9565b5090565b90565b6106bb806101f76000396000f300608060405260043610610057576000357c0100000000000000000000000000000000000000000000000000000000900463ffffffff168063a005db411461005c578063c37218a614610066578063d26095151461019c575b600080fd5b610064610255565b005b34801561007257600080fd5b5061007b6103fa565b604051808573ffffffffffffffffffffffffffffffffffffffff1673ffffffffffffffffffffffffffffffffffffffff1681526020018060200180602001848152602001838103835286818151815260200191508051906020019080838360005b838110156100f75780820151818401526020810190506100dc565b50505050905090810190601f1680156101245780820380516001836020036101000a031916815260200191505b50838103825285818151815260200191508051906020019080838360005b8381101561015d578082015181840152602081019050610142565b50505050905090810190601f16801561018a5780820380516001836020036101000a031916815260200191505b50965050505050505060405180910390f35b3480156101a857600080fd5b50610253600480360381019080803590602001908201803590602001908080601f0160208091040260200160405190810160405280939291908181526020018383808284378201915050505050509192919290803590602001908201803590602001908080601f016020809104026020016040519081016040528093929190818152602001838380828437820191505050505050919291929080359060200190929190505050610570565b005b60008060009054906101000a900473ffffffffffffffffffffffffffffffffffffffff1673ffffffffffffffffffffffffffffffffffffffff161415151561029c57600080fd5b6000600160009054906101000a900473ffffffffffffffffffffffffffffffffffffffff1673ffffffffffffffffffffffffffffffffffffffff161415156102e357600080fd5b6000809054906101000a900473ffffffffffffffffffffffffffffffffffffffff1673ffffffffffffffffffffffffffffffffffffffff163373ffffffffffffffffffffffffffffffffffffffff161415151561033f57600080fd5b6004543414151561034f57600080fd5b33600160006101000a81548173ffffffffffffffffffffffffffffffffffffffff021916908373ffffffffffffffffffffffffffffffffffffffff1602179055506000809054906101000a900473ffffffffffffffffffffffffffffffffffffffff1673ffffffffffffffffffffffffffffffffffffffff166108fc349081150290604051600060405180830381858888f193505050501580156103f7573d6000803e3d6000fd5b50565b600060608060008060009054906101000a900473ffffffffffffffffffffffffffffffffffffffff1660026003600454828054600181600116156101000203166002900480601f0160208091040260200160405190810160405280929190818152602001828054600181600116156101000203166002900480156104bf5780601f10610494576101008083540402835291602001916104bf565b820191906000526020600020905b8154815290600101906020018083116104a257829003601f168201915b50505050509250818054600181600116156101000203166002900480601f01602080910402602001604051908101604052809291908181526020018280546001816001161561010002031660029004801561055b5780601f106105305761010080835404028352916020019161055b565b820191906000526020600020905b81548152906001019060200180831161053e57829003601f168201915b50505050509150935093509350935090919293565b336000806101000a81548173ffffffffffffffffffffffffffffffffffffffff021916908373ffffffffffffffffffffffffffffffffffffffff16021790555082600290805190602001906105c69291906105ea565b5081600390805190602001906105dd9291906105ea565b5080600481905550505050565b828054600181600116156101000203166002900490600052602060002090601f016020900481019282601f1061062b57805160ff1916838001178555610659565b82800160010185558215610659579182015b8281111561065857825182559160200191906001019061063d565b5b509050610666919061066a565b5090565b61068c91905b80821115610688576000816000905550600101610670565b5090565b905600a165627a7a7230582054eb6ae394e62ab482fb21c8c4a168900c155279bc950afa69e5b5d4f17df0870029",
  "source": "pragma solidity ^0.4.24;\r\n\r\ncontract Classifieds {\r\n  //state variables\r\n  address seller;\r\n  address buyer;\r\n  string name;\r\n  string description;\r\n  uint256 price;\r\n\r\n  //constructor\r\n\r\n    function Classifieds()public{\r\n      sellArticle(\"Default Article\", \"This is an article set by default\", 100000000000000000);\r\n    }\r\n\r\n  //sell an article\r\n  function sellArticle(string _name, string _description, uint256 _price) public{\r\n    seller = msg.sender;\r\n    name = _name;\r\n    description = _description;\r\n    price = _price;\r\n  }\r\n\r\n\r\n\r\n  //get an article\r\n  function getArticle() public view returns (address _seller, string _name, string _description, uint256 _price)\r\n  {\r\n    return(seller, name, description, price);\r\n  }\r\n\r\n //buy an article\r\n\r\n function buyArticle() payable public{\r\n //we can check whether there is an article for sale\r\n    require(seller != 0x0);\r\n\r\n    //we check whether the article ahas not been sold yet\r\n    require(buyer == 0x0);\r\n\r\n    //we dont allow the seller to buy his own article\r\n    require (msg.sender != seller);\r\n\r\n  // we check the value sent corresponds to the price of the article\r\n  require(msg.value == price);\r\n\r\n  //keep buyers information\r\n  buyer = msg.sender;\r\n\r\n    // the buyer can pay the seller\r\n    seller.transfer(msg.value);\r\n  }\r\n}\r\n",
  "sourcePath": "C:\\Users\\G\\Classifieds\\contracts\\Classifieds.sol",
  "compiler": {
    "name": "solc",
    "version": "0.4.24+commit.e67f0147.Emscripten.clang"
  },
  "schemaVersion": "2.0.1",
  "updatedAt": "2018-10-31T18:57:16.628Z"
}