{
  "contractName": "Classifieds",
  "abi": [
    {
      "anonymous": false,
      "inputs": [
        {
          "indexed": true,
          "name": "_seller",
          "type": "address"
        },
        {
          "indexed": false,
          "name": "_name",
          "type": "string"
        },
        {
          "indexed": false,
          "name": "_price",
          "type": "uint256"
        }
      ],
      "name": "LogSellArticle",
      "type": "event"
    },
    {
      "anonymous": false,
      "inputs": [
        {
          "indexed": true,
          "name": "_seller",
          "type": "address"
        },
        {
          "indexed": true,
          "name": "_buyer",
          "type": "address"
        },
        {
          "indexed": false,
          "name": "_name",
          "type": "string"
        },
        {
          "indexed": false,
          "name": "_price",
          "type": "uint256"
        }
      ],
      "name": "LogBuyArticle",
      "type": "event"
    },
    {
      "constant": false,
      "inputs": [
        {
          "name": "_name",
          "type": "string"
        },
        {
          "name": "_description",
          "type": "string"
        },
        {
          "name": "_price",
          "type": "uint256"
        }
      ],
      "name": "sellArticle",
      "outputs": [],
      "payable": false,
      "stateMutability": "nonpayable",
      "type": "function"
    },
    {
      "constant": true,
      "inputs": [],
      "name": "getArticle",
      "outputs": [
        {
          "name": "_seller",
          "type": "address"
        },
        {
          "name": "_name",
          "type": "string"
        },
        {
          "name": "_description",
          "type": "string"
        },
        {
          "name": "_price",
          "type": "uint256"
        }
      ],
      "payable": false,
      "stateMutability": "view",
      "type": "function"
    },
    {
      "constant": false,
      "inputs": [],
      "name": "buyArticle",
      "outputs": [],
      "payable": true,
      "stateMutability": "payable",
      "type": "function"
    }
  ],
  "bytecode": "0x608060405234801561001057600080fd5b506108ec806100206000396000f300608060405260043610610057576000357c0100000000000000000000000000000000000000000000000000000000900463ffffffff168063a005db411461005c578063c37218a614610066578063d26095151461019c575b600080fd5b610064610255565b005b34801561007257600080fd5b5061007b61052f565b604051808573ffffffffffffffffffffffffffffffffffffffff1673ffffffffffffffffffffffffffffffffffffffff1681526020018060200180602001848152602001838103835286818151815260200191508051906020019080838360005b838110156100f75780820151818401526020810190506100dc565b50505050905090810190601f1680156101245780820380516001836020036101000a031916815260200191505b50838103825285818151815260200191508051906020019080838360005b8381101561015d578082015181840152602081019050610142565b50505050905090810190601f16801561018a5780820380516001836020036101000a031916815260200191505b50965050505050505060405180910390f35b3480156101a857600080fd5b50610253600480360381019080803590602001908201803590602001908080601f0160208091040260200160405190810160405280939291908181526020018383808284378201915050505050509192919290803590602001908201803590602001908080601f0160208091040260200160405190810160405280939291908181526020018383808284378201915050505050509192919290803590602001909291905050506106a5565b005b60008060009054906101000a900473ffffffffffffffffffffffffffffffffffffffff1673ffffffffffffffffffffffffffffffffffffffff161415151561029c57600080fd5b6000600160009054906101000a900473ffffffffffffffffffffffffffffffffffffffff1673ffffffffffffffffffffffffffffffffffffffff161415156102e357600080fd5b6000809054906101000a900473ffffffffffffffffffffffffffffffffffffffff1673ffffffffffffffffffffffffffffffffffffffff163373ffffffffffffffffffffffffffffffffffffffff161415151561033f57600080fd5b6004543414151561034f57600080fd5b33600160006101000a81548173ffffffffffffffffffffffffffffffffffffffff021916908373ffffffffffffffffffffffffffffffffffffffff1602179055506000809054906101000a900473ffffffffffffffffffffffffffffffffffffffff1673ffffffffffffffffffffffffffffffffffffffff166108fc349081150290604051600060405180830381858888f193505050501580156103f7573d6000803e3d6000fd5b50600160009054906101000a900473ffffffffffffffffffffffffffffffffffffffff1673ffffffffffffffffffffffffffffffffffffffff166000809054906101000a900473ffffffffffffffffffffffffffffffffffffffff1673ffffffffffffffffffffffffffffffffffffffff167fdc1065e914cede092c40ba25091b608a250dbbc1b32914631531655c2b5b00816002600454604051808060200183815260200182810382528481815460018160011615610100020316600290048152602001915080546001816001161561010002031660029004801561051e5780601f106104f35761010080835404028352916020019161051e565b820191906000526020600020905b81548152906001019060200180831161050157829003601f168201915b5050935050505060405180910390a3565b600060608060008060009054906101000a900473ffffffffffffffffffffffffffffffffffffffff1660026003600454828054600181600116156101000203166002900480601f0160208091040260200160405190810160405280929190818152602001828054600181600116156101000203166002900480156105f45780601f106105c9576101008083540402835291602001916105f4565b820191906000526020600020905b8154815290600101906020018083116105d757829003601f168201915b50505050509250818054600181600116156101000203166002900480601f0160208091040260200160405190810160405280929190818152602001828054600181600116156101000203166002900480156106905780601f1061066557610100808354040283529160200191610690565b820191906000526020600020905b81548152906001019060200180831161067357829003601f168201915b50505050509150935093509350935090919293565b336000806101000a81548173ffffffffffffffffffffffffffffffffffffffff021916908373ffffffffffffffffffffffffffffffffffffffff16021790555082600290805190602001906106fb92919061081b565b50816003908051906020019061071292919061081b565b50806004819055506000809054906101000a900473ffffffffffffffffffffffffffffffffffffffff1673ffffffffffffffffffffffffffffffffffffffff167f02bce32b00112077eb590edcbfae020c674b22a31691eadef8ec7c17541e83cc600260045460405180806020018381526020018281038252848181546001816001161561010002031660029004815260200191508054600181600116156101000203166002900480156108075780601f106107dc57610100808354040283529160200191610807565b820191906000526020600020905b8154815290600101906020018083116107ea57829003601f168201915b5050935050505060405180910390a2505050565b828054600181600116156101000203166002900490600052602060002090601f016020900481019282601f1061085c57805160ff191683800117855561088a565b8280016001018555821561088a579182015b8281111561088957825182559160200191906001019061086e565b5b509050610897919061089b565b5090565b6108bd91905b808211156108b95760008160009055506001016108a1565b5090565b905600a165627a7a72305820c57218df70f38425f0fc71d32d9be928551c7ba0ea24e0cb22183e2eabf76d950029",
  "source": "pragma solidity ^0.4.24;\r\n\r\ncontract Classifieds {\r\n  //state variables\r\n  address seller;\r\n  address buyer;\r\n  string name;\r\n  string description;\r\n  uint256 price;\r\n\r\n  //events\r\n  event LogSellArticle(\r\n    address indexed _seller,\r\n    string _name,\r\n    uint256 _price\r\n    );\r\n\r\n    event LogBuyArticle(\r\n      address indexed _seller,\r\n      address indexed _buyer,\r\n      string _name,\r\n      uint _price\r\n      );\r\n\r\n\r\n  //sell an article\r\n  function sellArticle(string _name, string _description, uint256 _price) public{\r\n    seller = msg.sender;\r\n    name = _name;\r\n    description = _description;\r\n    price = _price;\r\n\r\n    LogSellArticle(seller, name, price);\r\n  }\r\n\r\n\r\n\r\n  //get an article\r\n  function getArticle() public view returns (address _seller, string _name, string _description, uint256 _price)\r\n  {\r\n    return(seller, name, description, price);\r\n  }\r\n\r\n //buy an article\r\n\r\n function buyArticle() payable public{\r\n //we can check whether there is an article for sale\r\n    require(seller != 0x0);\r\n\r\n    //we check whether the article has not been sold yet\r\n    require(buyer == 0x0);\r\n\r\n    //we dont allow the seller to buy his own article\r\n    require (msg.sender != seller);\r\n\r\n  // we check the value sent corresponds to the price of the article\r\n  require(msg.value == price);\r\n\r\n  //keep buyers information\r\n  buyer = msg.sender;\r\n\r\n    // the buyer can pay the seller\r\n    seller.transfer(msg.value);\r\n\r\n    // trigger the events\r\n    LogBuyArticle(seller,buyer,name,price);\r\n  }\r\n}\r\n",
  "sourcePath": "C:\\Users\\G\\CLassifieds\\contracts\\Classifieds.sol",
  "compiler": {
    "name": "solc",
    "version": "0.4.24+commit.e67f0147.Emscripten.clang"
  },
  "schemaVersion": "2.0.1",
  "updatedAt": "2018-11-09T08:20:33.418Z"
}