{
  "contractName": "Classifieds",
  "abi": [
    {
      "constant": true,
      "inputs": [
        {
          "name": "",
          "type": "uint256"
        }
      ],
      "name": "articles",
      "outputs": [
        {
          "name": "id",
          "type": "uint256"
        },
        {
          "name": "seller",
          "type": "address"
        },
        {
          "name": "buyer",
          "type": "address"
        },
        {
          "name": "name",
          "type": "string"
        },
        {
          "name": "description",
          "type": "string"
        },
        {
          "name": "price",
          "type": "uint256"
        }
      ],
      "payable": false,
      "stateMutability": "view",
      "type": "function"
    },
    {
      "anonymous": false,
      "inputs": [
        {
          "indexed": true,
          "name": "_id",
          "type": "uint256"
        },
        {
          "indexed": true,
          "name": "_seller",
          "type": "address"
        },
        {
          "indexed": false,
          "name": "_name",
          "type": "string"
        },
        {
          "indexed": false,
          "name": "_price",
          "type": "uint256"
        }
      ],
      "name": "LogSellArticle",
      "type": "event"
    },
    {
      "anonymous": false,
      "inputs": [
        {
          "indexed": true,
          "name": "_id",
          "type": "uint256"
        },
        {
          "indexed": true,
          "name": "_seller",
          "type": "address"
        },
        {
          "indexed": true,
          "name": "_buyer",
          "type": "address"
        },
        {
          "indexed": false,
          "name": "_name",
          "type": "string"
        },
        {
          "indexed": false,
          "name": "_price",
          "type": "uint256"
        }
      ],
      "name": "LogBuyArticle",
      "type": "event"
    },
    {
      "constant": false,
      "inputs": [
        {
          "name": "_name",
          "type": "string"
        },
        {
          "name": "_description",
          "type": "string"
        },
        {
          "name": "_price",
          "type": "uint256"
        }
      ],
      "name": "sellArticle",
      "outputs": [],
      "payable": false,
      "stateMutability": "nonpayable",
      "type": "function"
    },
    {
      "constant": true,
      "inputs": [],
      "name": "getNumberOfArticles",
      "outputs": [
        {
          "name": "",
          "type": "uint256"
        }
      ],
      "payable": false,
      "stateMutability": "view",
      "type": "function"
    },
    {
      "constant": true,
      "inputs": [],
      "name": "getArticlesForSale",
      "outputs": [
        {
          "name": "",
          "type": "uint256[]"
        }
      ],
      "payable": false,
      "stateMutability": "view",
      "type": "function"
    },
    {
      "constant": false,
      "inputs": [
        {
          "name": "_id",
          "type": "uint256"
        }
      ],
      "name": "buyArticle",
      "outputs": [],
      "payable": true,
      "stateMutability": "payable",
      "type": "function"
    }
  ],
  "bytecode": "0x608060405234801561001057600080fd5b50610c7b806100206000396000f30060806040526004361061006d576000357c0100000000000000000000000000000000000000000000000000000000900463ffffffff1680631cc4baa8146100725780637f6be3da1461009257806389da85d3146100fe578063d260951514610129578063edcfafe6146101e2575b600080fd5b61009060048036038101908080359060200190929190505050610368565b005b34801561009e57600080fd5b506100a7610656565b6040518080602001828103825283818151815260200191508051906020019060200280838360005b838110156100ea5780820151818401526020810190506100cf565b505050509050019250505060405180910390f35b34801561010a57600080fd5b506101136107cf565b6040518082815260200191505060405180910390f35b34801561013557600080fd5b506101e0600480360381019080803590602001908201803590602001908080601f0160208091040260200160405190810160405280939291908181526020018383808284378201915050505050509192919290803590602001908201803590602001908080601f0160208091040260200160405190810160405280939291908181526020018383808284378201915050505050509192919290803590602001909291905050506107d9565b005b3480156101ee57600080fd5b5061020d600480360381019080803590602001909291905050506109fe565b604051808781526020018673ffffffffffffffffffffffffffffffffffffffff1673ffffffffffffffffffffffffffffffffffffffff1681526020018573ffffffffffffffffffffffffffffffffffffffff1673ffffffffffffffffffffffffffffffffffffffff1681526020018060200180602001848152602001838103835286818151815260200191508051906020019080838360005b838110156102c15780820151818401526020810190506102a6565b50505050905090810190601f1680156102ee5780820380516001836020036101000a031916815260200191505b50838103825285818151815260200191508051906020019080838360005b8381101561032757808201518184015260208101905061030c565b50505050905090810190601f1680156103545780820380516001836020036101000a031916815260200191505b509850505050505050505060405180910390f35b60008060015411151561037a57600080fd5b60008211801561038c57506001548211155b151561039757600080fd5b600080838152602001908152602001600020905060008160020160009054906101000a900473ffffffffffffffffffffffffffffffffffffffff1673ffffffffffffffffffffffffffffffffffffffff161415156103f457600080fd5b8060010160009054906101000a900473ffffffffffffffffffffffffffffffffffffffff1673ffffffffffffffffffffffffffffffffffffffff163373ffffffffffffffffffffffffffffffffffffffff161415151561045357600080fd5b80600501543414151561046557600080fd5b338160020160006101000a81548173ffffffffffffffffffffffffffffffffffffffff021916908373ffffffffffffffffffffffffffffffffffffffff1602179055508060010160009054906101000a900473ffffffffffffffffffffffffffffffffffffffff1673ffffffffffffffffffffffffffffffffffffffff166108fc349081150290604051600060405180830381858888f19350505050158015610512573d6000803e3d6000fd5b508060020160009054906101000a900473ffffffffffffffffffffffffffffffffffffffff1673ffffffffffffffffffffffffffffffffffffffff168160010160009054906101000a900473ffffffffffffffffffffffffffffffffffffffff1673ffffffffffffffffffffffffffffffffffffffff16837f5d28bc06e6f0c45405abfe77bd77236c767f9bd9d044ae2d954a415a2b4823e084600301856005015460405180806020018381526020018281038252848181546001816001161561010002031660029004815260200191508054600181600116156101000203166002900480156106435780601f1061061857610100808354040283529160200191610643565b820191906000526020600020905b81548152906001019060200180831161062657829003601f168201915b5050935050505060405180910390a45050565b606080600080606060006001546040519080825280602002602001820160405280156106915781602001602082028038833980820191505090505b50945060009350600192505b6001548311151561074457600080600085815260200190815260200160002060020160009054906101000a900473ffffffffffffffffffffffffffffffffffffffff1673ffffffffffffffffffffffffffffffffffffffff1614156107375760008084815260200190815260200160002060000154858581518110151561072057fe5b906020019060200201818152505083806001019450505b828060010193505061069d565b836040519080825280602002602001820160405280156107735781602001602082028038833980820191505090505b509150600090505b838110156107c457848181518110151561079157fe5b9060200190602002015182828151811015156107a957fe5b9060200190602002018181525050808060010191505061077b565b819550505050505090565b6000600154905090565b60016000815480929190600101919050555060c06040519081016040528060015481526020013373ffffffffffffffffffffffffffffffffffffffff168152602001600073ffffffffffffffffffffffffffffffffffffffff1681526020018481526020018381526020018281525060008060015481526020019081526020016000206000820151816000015560208201518160010160006101000a81548173ffffffffffffffffffffffffffffffffffffffff021916908373ffffffffffffffffffffffffffffffffffffffff16021790555060408201518160020160006101000a81548173ffffffffffffffffffffffffffffffffffffffff021916908373ffffffffffffffffffffffffffffffffffffffff1602179055506060820151816003019080519060200190610910929190610baa565b50608082015181600401908051906020019061092d929190610baa565b5060a082015181600501559050503373ffffffffffffffffffffffffffffffffffffffff166001547fe2ebb0c522a8b90a93f45a5dfd3c0e0516b81519fdf199efe51c474642fe8cec85846040518080602001838152602001828103825284818151815260200191508051906020019080838360005b838110156109be5780820151818401526020810190506109a3565b50505050905090810190601f1680156109eb5780820380516001836020036101000a031916815260200191505b50935050505060405180910390a3505050565b60006020528060005260406000206000915090508060000154908060010160009054906101000a900473ffffffffffffffffffffffffffffffffffffffff16908060020160009054906101000a900473ffffffffffffffffffffffffffffffffffffffff1690806003018054600181600116156101000203166002900480601f016020809104026020016040519081016040528092919081815260200182805460018160011615610100020316600290048015610afc5780601f10610ad157610100808354040283529160200191610afc565b820191906000526020600020905b815481529060010190602001808311610adf57829003601f168201915b505050505090806004018054600181600116156101000203166002900480601f016020809104026020016040519081016040528092919081815260200182805460018160011615610100020316600290048015610b9a5780601f10610b6f57610100808354040283529160200191610b9a565b820191906000526020600020905b815481529060010190602001808311610b7d57829003601f168201915b5050505050908060050154905086565b828054600181600116156101000203166002900490600052602060002090601f016020900481019282601f10610beb57805160ff1916838001178555610c19565b82800160010185558215610c19579182015b82811115610c18578251825591602001919060010190610bfd565b5b509050610c269190610c2a565b5090565b610c4c91905b80821115610c48576000816000905550600101610c30565b5090565b905600a165627a7a723058206787a7c8173661ad98177a72a0a942fdbcd6688d44238017eb6f6cb0cca0c6a20029",
  "source": "pragma solidity ^0.4.24;\r\n\r\ncontract Classifieds {\r\n  //custom types\r\nstruct Article{\r\n  uint id;\r\n  address seller;\r\n  address buyer;\r\n  string name;\r\n  string description;\r\n  uint256 price;\r\n}\r\n\r\n  //state variables\r\n\r\nmapping (uint => Article) public articles;\r\nuint articleCounter;\r\n\r\n  //events\r\n  event LogSellArticle(\r\n    uint indexed _id,\r\n    address indexed _seller,\r\n    string _name,\r\n    uint256 _price\r\n    );\r\n\r\n    event LogBuyArticle(\r\n\r\n      uint indexed _id,\r\n      address indexed _seller,\r\n      address indexed _buyer,\r\n      string _name,\r\n      uint _price\r\n      );\r\n\r\n\r\n  //sell an article\r\n  function sellArticle(string _name, string _description, uint256 _price) public{\r\n    // a new article\r\n    articleCounter++;\r\n\r\n    articles[articleCounter] = Article(\r\n      articleCounter,\r\n      msg.sender,\r\n      0x0,\r\n      _name,\r\n      _description,\r\n      _price\r\n      );\r\n\r\n    LogSellArticle(articleCounter, msg.sender, _name, _price);\r\n  }\r\n\r\n// fetch the number of articles in the contract\r\n  function getNumberOfArticles() public view returns (uint){\r\n    return articleCounter;\r\n  }\r\n\r\n\r\n  // fetch and return all artilce ids for articles still for scale\r\n  function getArticlesForSale() public view returns (uint[]){\r\n    //prepare output array\r\n    uint[] memory articleIds = new uint[](articleCounter);\r\n\r\n    uint numberofArticlesForSale = 0;\r\n\r\n    // iterate over articles\r\n    for(uint i=1; i <= articleCounter; i++){\r\n      //keep the ID if the article is still for sale\r\n      if(articles[i].buyer == 0x0){\r\n        articleIds[numberofArticlesForSale] = articles[i].id;\r\n        numberofArticlesForSale++;\r\n      }\r\n    }\r\n\r\n    //copy the articleIDs array into a smaller forSale array\r\n\r\n  uint[] memory forSale = new uint[](numberofArticlesForSale);\r\n  for(uint j = 0; j < numberofArticlesForSale; j++){\r\n    forSale[j] = articleIds[j];\r\n  }\r\n  return forSale;\r\n  }\r\n\r\n\r\n\r\n //buy an article\r\n\r\n function buyArticle(uint _id) payable public{\r\n    //we can check whether there is an article for sale\r\n    require(articleCounter > 0);\r\n\r\n    //we check that the artilce exists\r\n    require(_id > 0 && _id <= articleCounter);\r\n\r\n    //we retrieve the article from mapping\r\n\r\n    Article storage article = articles[_id];\r\n\r\n    //we check whether the article has not been sold yet\r\n    require(article.buyer == 0x0);\r\n\r\n    //we dont allow the seller to buy his own article\r\n    require (msg.sender != article.seller);\r\n\r\n  // we check the value sent corresponds to the price of the article\r\n  require(msg.value == article.price);\r\n\r\n  //keep buyers information\r\n  article.buyer = msg.sender;\r\n\r\n    // the buyer can pay the seller\r\n    article.seller.transfer(msg.value);\r\n\r\n    // trigger the events\r\n    LogBuyArticle(_id, article.seller, article.buyer, article.name, article.price);\r\n  }\r\n}\r\n",
  "sourcePath": "C:\\Users\\G\\Classifieds\\contracts\\Classifieds.sol",
  "compiler": {
    "name": "solc",
    "version": "0.4.24+commit.e67f0147.Emscripten.clang"
  },
  "schemaVersion": "2.0.1",
  "updatedAt": "2018-11-20T14:05:54.919Z"
}